:020000040000FA
:10000000E8020010690100007101000073010000A6
:100010007501000077010000790100000000000078
:100020000000000000000000000000007B01000054
:100030007D010000000000007F0100008101000040
:1000400083010000830100008301000083010000A0
:100050008301000083010000830100008301000090
:100060008301000083010000830100008301000080
:100070008301000083010000830100008301000070
:100080008301000083010000830100008301000060
:100090008301000083010000830100008301000050
:1000A0008301000083010000830100008301000040
:1000B0008301000083010000830100008301000030
:1000C00083010000830100008301000000F002F8BA
:1000D00000F03AF80AA090E8000C82448344AAF1A8
:1000E0000107DA4501D100F02FF8AFF2090EBAE8A6
:1000F0000F0013F0010F18BFFB1A43F0010318475C
:10010000C0240000E0240000103A24BF78C878C161
:10011000FAD8520724BF30C830C144BF04680C600D
:10012000704700000023002400250026103A28BF55
:1001300078C1FBD8520728BF30C148BF0B60704759
:100140001FB51FBD10B510BD00F038FE1146FFF7FA
:10015000F7FF00F0A3FD00F0B3F803B4FFF7F2FFE0
:1001600003BC00F0B3F80000094880470948004785
:10017000FEE7FEE7FEE7FEE7FEE7FEE7FEE7FEE757
:10018000FEE7FEE704480549034A054B70470000B7
:10019000A9040000CD000000E8000010E8020010F3
:1001A000E800001053EA020C00F069802DE9F04BE2
:1001B0004FF00006002B1FBFB3FA83F503FA05F4D6
:1001C00024FA05F65E4012BF1643B2FA82F502FA2F
:1001D00005F4C5F120051EBF22FA05FC44EA0C0413
:1001E000203556EA044C4FEA144418BF641C4FF003
:1001F00000084FF00009904271EB030C39D300293D
:1002000019BFB1FA81F701FA07F6B0FA80F700FAE0
:1002100007F6C7F120071EBF20FA07FC46EA0C06C6
:100220002037B6FBF4FCA7EB0507103F07F01F0BC8
:10023000CBF120060CFA0BFB2CFA06F644BFB346B2
:100240000026202FA4BF5E464FF0000B5BEA060C91
:1002500008BF4FF0010B19EB0B09ABFB027C48EB1D
:100260000608C01B06FB02CC0BFB03CC71EB0C0198
:10027000C1E70B46024641464846BDE8F08B13B540
:100280004FF000004FF00001AFF30080BDE81C40CC
:10029000704770477047704710B500F009F8006864
:1002A00010BD10B5044600F003F8046010BD000056
:1002B0000048704784000010004870478400001018
:1002C0000446AFF300802046FFF747FF014918209E
:1002D000ABBEFEE72600020070470000024A002085
:1002E000110702F0DDB8000001FDFFFF02494FF0E9
:1002F000000002F0A3B800BF0000F87FFFFFFFFF7F
:100300002DE9F047B1480068C0F3016003287CD1B3
:10031000AF48006810F0030006D0012833D002284F
:100320005FD003282ED100E000BFA8480068C0F3CA
:10033000074000F101044FF00201A648D0F8880000
:10034000C0F30E0000F10100A1FB0001A24B4FF031
:10035000000CA0FB037901FB039100FB0C1122466A
:1003600063463846FFF71EFF05469C480068C0B24A
:1003700000F1010422464FF000032846FFF712FF68
:10038000974908605DE091480068C0F3074000F1BC
:1003900001044FF002018F48D0F88800C0F30E002E
:1003A00000F10100A1FB00108E4A4FF0000CA1FBF0
:1003B000027900FB029001FB0C012246634638469D
:1003C000FFF7F0FE054685480068C0B200F1010461
:1003D00022464FF000032846FFF7E4FE80490860FC
:1003E0002FE07A480068C0F3074000F101044FF0A5
:1003F00002017848D0F88800C0F30E0000F1010037
:10040000A1FB00124FF4004000E01BE04FF000039E
:10041000A1FB007902FB009001FB03012246384654
:10042000FFF7C0FE05466D480068C0B200F1010448
:1004300022464FF000032846FFF7B4FE68490860E3
:1004400000BF2FE06248006810F0030006D00128CA
:1004500010D0022819D0032823D100E000BF5F4844
:100460000068C0B200F101005B49B1FBF0F05C49EB
:10047000086016E059480068C0B200F1010059490F
:10048000B1FBF0F0564908600BE054480068C0B278
:1004900000F101004FF40041B1FBF0F05049086059
:1004A00000BF00BFBDE8F08720204F4908604948E1
:1004B000D0F8A00110F0200F05D000BF4A48006816
:1004C00010F0400FFAD00320444908604FF00000BC
:1004D0004049C1F8A801454908604FF001003C4976
:1004E00008604348434908604FF0AA004249086049
:1004F0004FF0550008604FF00100404908604FF090
:10050000AA003D4908604FF055003249C1F88C00FF
:1005100000BF2E48006810F0806FFAD003203749E2
:1005200008604FF0AA002B49C1F88C004FF055002D
:100530003149086000BF2548006800F04070B0F104
:10054000407FF8D123202E4908604FF0AA002149AE
:10055000C1F8AC004FF055002A4908604FF0010087
:10056000294908604FF0AA00264908604FF055005D
:100570001849C1F8AC0000BF2448006810F4806F2F
:10058000FAD00320204908604FF0AA001149C1F8B1
:10059000AC004FF055001B49086000BF1B480068C5
:1005A00000F44070B0F5407FF8D11948194908604F
:1005B0004FF000000749C1F8C8010846006820F460
:1005C000704040F4804008607047000088C00F40D1
:1005D0000CC10F4000C00F4000093D0004C10F4096
:1005E00000000010001BB700A0C10F40ACC10F40BD
:1005F0006300050084C00F408CC00F4080C00F40D6
:10060000A4C00F40ACC00F40A0C00F40A8C00F4016
:10061000DE872804C4C00F40002105E0002200E06E
:10062000521C8242FCD3491C6429F7D3704770B531
:10063000044604F00F052609F006624948610846A1
:10064000406B20F4800048634FF49670FFF7E4FF9E
:100650005C48406B20F400005A4948634FF49670A0
:10066000FFF7DAFF5748406B40F4000055494863F4
:100670004FF49670FFF7D0FFE806524948610846EC
:10068000406B20F4800048634FF49670FFF7C4FF7E
:100690004C48406B20F400004A4948634FF4967080
:1006A000FFF7BAFF4748406B40F4000045494863F4
:1006B0004FF49670FFF7B0FF70BD1CB5002442A147
:1006C00003C9CDE900014248C06820F470404049A8
:1006D000C8600846C06C20F4C030C8640846C06CCE
:1006E00040F40040C8643748006840F0F0403549A5
:1006F00008600846006A40F4400008620846406B03
:1007000040F4000048636420FFF786FF04E01DF812
:100710000400FFF78CFF641C1DF804000028F6D1CC
:100720001CBD70B5044604F00F052609F0062549E6
:1007300048610846406B40F4800048634FF496706F
:10074000FFF76AFF1F48406B20F400001D49486313
:100750004FF49670FFF760FF1A48406B40F40000BA
:10076000184948634FF4FA70FFF756FFE806154939
:1007700048610846406B40F4800048634FF496702F
:10078000FFF74AFF0F48406B20F400000D49486313
:100790004FF49670FFF740FF0A48406B40F40000AA
:1007A000084948634FF4FA70FFF736FF70BD10B583
:1007B00004462046FFF73BFF4FF47A60FFF72CFF1B
:1007C00010BD000000C009203332280E0106800051
:1007D00000C00240002105E0002200E0521C8242DD
:1007E000FCD3491C0A29F7D3704770B5054600248D
:1007F00003E0285DFFF795FF641C285DA042F8DC4C
:1008000070BD2DE9F041FC490968081F01F0B3FAF9
:10081000064632460B4600204FF0804100F05CFB5C
:1008200004460022F54B01F0F9FAF54A03C2002212
:10083000F44B1046D90200F04FFB0446F0480CC8B8
:10084000204601F0EBFAF04A03C24FF05532EF4B6D
:100850000020910700F040FB0446E9480CC8204600
:1008600001F0DCFAEA4A03C2EA4AEB4B00205907DE
:1008700000F032FB0446E2480CC8204601F0CEFAF4
:10088000E64A03C20022E64B10464FF0804100F0DA
:1008900023FB0446DA480CC8204601F0BFFAE14ABF
:1008A00003C2DC4AE04B0020590700F015FB044668
:1008B000D3480CC8204601F0B1FADC4A03C24FF01D
:1008C0005532DB4B0020910700F006FB0446CC4874
:1008D0000CC8204601F0A2FAD64A03C20022D64B29
:1008E0001046990200F0F8FA0446C5480CC82046A4
:1008F00001F094FAD14A03C24FF05532D04B002098
:10090000910700F0E9FA0446BD480CC8204601F002
:1009100085FACC4A03C24FF05532CB4B00209107E9
:1009200000F0DAFA0446B6480CC8204601F076FA20
:10093000C64A03C24FF05532C54B0020910700F064
:10094000CBFA0446AE480CC8204601F067FAC14A0B
:1009500003C24FF05532C04B0020910700F0BCFAA3
:100960000446A7480CC8204601F058FABB4A03C207
:10097000BDE8F08170B504460D4622462B464FF087
:100980000000B74901F072F870BD2DE9F04104464E
:100990000D4620462946FFF7EDFFB24A03C2B14992
:1009A00003C901F0BBF9B049886100224FF08043D0
:1009B000AC4903C901F05AF8064601F0AFF9AA495B
:1009C000C86141F28830FFF705FF0120FFF7EFFE15
:1009D0008020FFF7ECFEA5A0FFF707FFC020FFF780
:1009E000E6FEA6A0FFF701FFC020FFF7E0FE41F200
:1009F0008830FFF7EFFEBDE8F081F0B522E0002778
:100A00004FF400251BE09F48406920F4F000284384
:100A10009C4948614FF44860FFF7DCFE9948406903
:100A200000F0F064E40D44B1002604E064080CB961
:100A3000B819F0BD761C042EF8D33F1D6D00B5F536
:100A4000800FE0D9DBE710B5FFF7D7FF8E490860CC
:100A500020208E4908708C4800680F2874D2DFE887
:100A600000F09C08141F27323A424D556068747C90
:100A70008C004320864908704FF47A70FFF7AAFE75
:100A8000614903C9FFF781FF88E04420804908706D
:100A900062207E4908705E4903C9FFF776FF7DE05A
:100AA00044207B4908705D4903C9FFF76EFF75E07C
:100AB000452077490870622074490870594903C974
:100AC000FFF763FF6AE0452071490870574903C981
:100AD000FFF75BFF62E046206D490870554903C986
:100AE000FFF753FF5AE047206949087062206749C1
:100AF0000870524903C9FFF748FF4FE04720644997
:100B00000870504903C9FFF740FF47E041206049A2
:100B1000087062205D4908704C4903C9FFF735FF32
:100B20003CE041205A490870354903C9FFF72DFFC1
:100B300034E0422056490870622054490870454903
:100B400003C9FFF722FF29E027E04220504908703F
:100B5000424903C9FFF719FF20E02748006802282F
:100B600004DD25480068401E23490860FFF749FE60
:100B70004FF47A70FFF72EFE10E01F48006805283A
:100B800004DA1D480068401C1B490860FFF739FE65
:100B90004FF47A70FFF71EFE00E000BF00BF10BDEB
:100BA00010B53C480068012810D100203949086080
:100BB0000120FFF7FCFD8020FFF7F9FD36A0FFF7CD
:100BC00014FE4FF47A70FFF705FE14E0012031495E
:100BD0000860FFF7ECFD8020FFF7E9FD23A0FFF799
:100BE00004FEC020FFF7E3FD24A0FFF7FEFD4FF455
:100BF0007A70FFF7EFFD10BD0C00001000807B4005
:100C0000600000100000E8BF180000105555E5BF57
:100C100020000010ABAAAAAAAAAAE2BF28000010CE
:100C20000000E0BF30000010AAAADABF38000010B0
:100C30005555D5BF400000100000D0BF480000103F
:100C40005555C5BF500000105555B5BF5800001090
:100C50005555B53F680000105555C53F7000001050
:100C600000408F4078000010008001404B45592023
:100C7000505245535345443A000000004E4F4E45F4
:100C80000000000000C00920100000101500001036
:100C900014000010080000104F464600FFF704FC47
:100CA000FFF72EFB01203B49086109203A494860C3
:100CB0000020C86001204861642088613220C8613A
:100CC00042F21070FFF786FD03203349086548158E
:100CD000C8643248006840F400403149C1F8C4009B
:100CE0002C48406C20F47F102A4948640846406C28
:100CF00040F42A1048642B48006840F4F000294969
:100D000008600846006820F0F0600860FFF7D5FC36
:100D10000C20FFF74CFD8020FFF749FDAFF2880063
:100D2000FFF763FDFFF76DFD32E0FFF766FE0F286A
:100D300001D1FFF735FF4FF47A70FFF74BFD1A48EA
:100D40000068012824D1FFF77EFE18480078184972
:100D5000087018480078487017480078303088705C
:100D60004FF47A70FFF736FD0120FFF720FD802059
:100D7000FFF71DFDAFF20C10FFF737FDC020FFF7A6
:100D800016FD0B48FFF731FD4FF47A70FFF722FD97
:100D9000CBE7000000C0024000800140C4C00F400B
:100DA00000C00F4000C0092008000010140000100F
:100DB00080000010150000100C0000107546FFF7B1
:100DC0007BFAAE4605006946534620F0070085468B
:100DD00018B020B5FFF7D6F9BDE820404FF0000667
:100DE0004FF000074FF000084FF0000B21F0070113
:100DF000AC46ACE8C009ACE8C009ACE8C009ACE856
:100E0000C0098D467047490050EAC12018BF042030
:100E10004A0D18BF40F0010040F2FF72B2EB515F83
:100E200008BF40F00200012808BF052070472DE9E7
:100E3000F0414F1E00EBC7010446D1E90001154601
:100E40001E4637F006020DD02A46334600F0E6FF74
:100E50007F1E04EBC703D3E9002300F053FD37F0F6
:100E60000602F1D1022F25D0042F13D0062F18BF70
:100E7000BDE8F0812A46334600F0D0FFD4E90A23CA
:100E800000F040FD2A46334600F0C8FFD4E90823AD
:100E900000F038FD2A46334600F0C0FFD4E90623AF
:100EA00000F030FD2A46334600F0B8FFD4E90423B1
:100EB00000F028FD2A46334600F0B0FFD4E90223B3
:100EC00000F020FD2A46334600F0A8FFD4E90023B5
:100ED000BDE8F04100F016BD2DE9F04D16460F4675
:100EE0000546020094B01C4621F0004123F000406A
:100EF00014BF4FF0010C4FF0000C0CEB470CFE4BF5
:100F00000CEB03084FEA630CE0452DD35FEA0608BB
:100F100018BF4FF0010808EB44089844F74B984578
:100F200022D3F74B50EA060C02D09F4205D14AB9B2
:100F300014B000201946BDE8F08D002A08BF4FF01C
:100F4000000C01D04FF0010C0CEB470313F5001F10
:100F50000AD8002E14BF4FF0010C4FF0000C0CEB20
:100F6000440313F5001F08D914B03246234628461F
:100F70003946BDE8F04D00F0C5BCDFF888B34FF04E
:100F8000000A002FB8BF584523DADF4B9842A8BFAC
:100F90004FF0020A1DDADA4B83421ADCDB4B03EB1B
:100FA0002053142B08DDC3F1340C26FA0CF303FA9A
:100FB0000CFCB4450DD108E05EB9C3F1140C20FA65
:100FC0000CF303FA0CFC844503D103F00103C3F1D5
:100FD000020A51EA020321D1002C1FDA002F18BFA8
:100FE000BAF1020F02D0BAF1010F0BD00220FFF7C5
:100FF00058F914B00022BDE8F04D13461046C04920
:1010000000F034BD0220FFF74CF914B02A463B46ED
:10101000BDE8F04D0020BA4900F028BD33006DD185
:10102000584525D107F1804010F5801001BF002AF6
:101030000020B34914B008BFBDE8F08DB048884225
:1010400007DC002CA1BF1846214614B0BDE8F08D86
:1010500007E0002CBFBF184684F0004114B0BDE883
:10106000F08DAB497944D1E9000114B0BDE8F08DB1
:10107000DFF88CC2604526D1002C1FDA19B1594522
:1010800013D1DAB90AE0002A40F0DA829D4A3946E3
:1010900014B0002062F31E01BDE8F08D0020394637
:1010A00014B060F31E01BDE8F08D07DA14B03B46C2
:1010B000BDE8F04D0020614600F0D8BC14B01046E9
:1010C0003946BDE8F08D594518DAB4F1804F0DD09E
:1010D000A4F10053B3F1FF5310D13B1E0EDB14B04B
:1010E0001046BDE8F04D194600F0E6BB3B4614B093
:1010F0001046BDE8F04D194600F090BE27F00043C1
:10110000A2BBE1B1594538D1002F06DD002CA1BFAB
:101110000020594614B0BDE8F08D002F01DD002CF1
:101120001FDB002F16DA002C14DBBAF1010F4FF091
:10113000000014BF7349774914B0BDE8F08DBAF1CF
:10114000020F18BF002F0CD0BAF1010F09D1002FE8
:1011500007DA0CE0002FB8BF002C0EDABAF1010F4D
:1011600005D0002014B00146BDE8F08D05E014B0B4
:1011700000204FF00041BDE8F08D4FF0010C0CEB6A
:10118000E7720D9252EA0A020BD0634A90427DDD6B
:10119000624B634A984216DD8A420EDB002C1CDB50
:1011A0002CE00120FFF77DF814B00022BDE8F04DDF
:1011B00013461046114600F059BC5148884202DCE3
:1011C000002C0ADC1AE0914202DA002C16DA04E064
:1011D0004B4B99421EDD002C10DD0220FFF761F819
:1011E00040F2013200204FF0E04101F059F9454A48
:1011F00014B061F31E021146BDE8F08D0220FFF726
:1012000050F8FFF76BF83E4A14B061F31E02114626
:10121000BDE8F08D00222846394601F025F8054644
:1012200088466FF0010201F03BF94FF055323D4B1B
:1012300000F028FF2A46434600F0F0FD00223A4B1A
:1012400000F020FF07468B462A46434610461946C3
:1012500000F0E4FD3A465B4600F0E0FD09910C9099
:101260004FF0C042314B2846414600F0D7FD0746BB
:101270008B462F4A2D4B09990C9800F0CFFDCDE9F4
:1012800001102C4A2C4B2846414600E019E000F0A2
:10129000C5FDDDE9013200F0E7FF3A465B46059106
:1012A000089000F02FFB002588463A465B4628460A
:1012B00000F0DAFF059B089A00F0E4FE024600F019
:1012C00076B90020B1F5801F07DA35222846194685
:1012D00001F0E6F805466FF0340000EB2150A0F273
:1012E000FF300190C1F3130040F07F6141F04051A5
:1012F00002911249884223E0FFFF1F00FFFF0F0009
:101300000000F03F0000F07F0000404301FCFFFFC1
:10131000501500000000F0FF0000E0410000F04325
:10132000FFFFEF3F5555D53F0000E03F4715F73F22
:10133000FE822B6544DF5DF80BAE543E8E980300B1
:10134000D8BF4FF0000B0EDDFE498142C8BF4FF001
:10135000010B08DC01984FF0000B401C0190029833
:10136000A0F580100290F8480299784400EBCB0079
:101370000B911090D0E90023284600F075FF0090F3
:1013800010980791D0E9002328460B9900F0BAFA8B
:1013900002460B460020ED4900F068FB05910B4624
:1013A000024608900799009800F038FD0690E8483A
:1013B000884600277844029900680E904FF000504C
:1013C00040EA610000EB8B4000F50021109802918B
:1013D000D0E900230E9800F047FF2A460B9B00F04F
:1013E00051FE3A46434600F019FD05460B9138463A
:1013F0004146029B0E9A00F011FD079B009A00F0F7
:1014000041FE2A460B9B00F02FFF059B089A00F037
:1014100005FD0B911090069A43461046194600F0C0
:10142000FDFC05460246CB480B4600910621784458
:10143000FFF7FDFC009B2A460291089010461946D2
:1014400000F0ECFC029B089A00F0E8FC05460591D0
:10145000434638461946069A00F054FA0B9B109AF8
:1014600000F0DCFC2A46059B00F04CFA3A46434665
:10147000059108901046194600F0D0FC0022B64BAA
:1014800000910C9000F03EFA059B089A00F03AFAA1
:101490000D463A46B04B384600F0E6FE009B0C9AEB
:1014A00000F0E2FE059B089A00F0ECFD11913A462F
:1014B0000C902B461046414600F0B0FC079100907E
:1014C0004346069A11990C9800F0A8FC80460391B7
:1014D0002B463A460B99109800F0A0FC4246039B1D
:1014E00000F010FA059180460B46024607990098D5
:1014F00000F008FA00200F460546079B009A00F00E
:10150000B3FE4246059B00F0BDFD804609914FF0B9
:101510006042924B2846394600F080FC00910290D0
:101520008F4A8E4B4046099900F078FC8046039123
:101530008C4A8D4B2846394600F070FC4246039B8E
:1015400000F0E0F9894A7A4402EBCB03D3E90023A7
:1015500000F0D8F906900391019800F00CFC0746C2
:10156000DDE902030591069A009900F0CBF9804A63
:101570007A4402EBCB0BDBE9002300F0C3F93A46D7
:10158000059B00F0BFF9002588463A462846059B92
:1015900000F06AFEDBE9002300F066FE009B029A81
:1015A00000F062FE039B069A00F06CFD02460020EC
:1015B00006900D98654FAAF10103184301D16D4FB4
:1015C000069000200B4600903046214600F026FC95
:1015D00082468B46234630461946009A00F044FE68
:1015E0002A46434600F01AFC52465B4600F08AF950
:1015F00006468A462A4643462146009800F00EFCDD
:1016000004460D463246534600F07CF95A4A8B4652
:10161000914226DBABEB020353EA000210D12246D3
:101620002B4600F021FE80460591544A544B30462B
:10163000514600F067F94246059B00F0EDFC30D2C0
:101640000220FEF72EFE40F2013200204FF0E04172
:1016500000F026FF0A46394614B062F31E01BDE8C9
:10166000F08D484B2BF000429A421AD3464A0BEBBE
:10167000020353EA000208D122462B4600F0F4FD93
:101680003246534600F0C8FC0BD80220FEF709FE94
:10169000FEF724FE0A46394614B062F31E01BDE887
:1016A000F08D2BF000403949394A01EB20514FF0C1
:1016B0000008824223DA481C4FF4801121FA00F01E
:1016C0005844C0F30A51334AA1F2FF317A44324BF5
:1016D0001268CB4020EA0303C0F3130040F4801CDF
:1016E000C1F114002CFA00F8BBF1000FB8BFC8F12B
:1016F00000082046294600F0B7FD04460D46224664
:101700002B463046514600F0FDF84FF0000B5A468C
:10171000224B5846059100F081FB00900791204A2A
:10172000204B5846059900F079FB0491029022461F
:101730002B465846059900F097FD3246534600F077
:10174000A1FC31E07AB60B00C21100000000F03FAE
:10175000001200002E1100000000084009C7EE3FF3
:10176000FD033ADCF5015B14E02F3EBE06100000DD
:10177000CC0F00000000F0BF00009040FE822B65FF
:101780004715973C00CC904000346F3F01FCFFFFB1
:101790000000E03FE80E0000FFFF0F00432EE63F91
:1017A000396CA80C615C20BE3F4A404B00F036FB10
:1017B000049B029A00F0A6F806468A46079B009A08
:1017C00000F0A0F804460D46079B009A00F04CFD7F
:1017D0003246534600F056FC064622462B460991F7
:1017E0001046194600F01AFB8346024630488A46E6
:1017F0000B4605217844FFF71AFB5A46534600F082
:101800000DFB22462B4600F03DFC82468B463246BD
:1018100020462946099B00F001FB3246099B00F057
:1018200071F80591089000224FF0804350465946C8
:1018300000F01AFD0646009152465B4620462946B6
:1018400000F0ECFA3246009B00F010F9059B089A74
:1018500000F00AFD22462B4600F006FD0022154B43
:1018600000F010FC0D46044601EB08510815002855
:1018700010DC42462046294600F012FEFFF7C3FA6C
:10188000042808BFFEF72AFD42462046294600F0FC
:1018900007FE044606980B4614B022463946BDE8BA
:1018A000F04D00F0BBBA0000EF39FAFE422EE63FE1
:1018B000980D00000000F03F2DE9F04106460F466C
:1018C00000F0ECFB04000D4618BF0120284320F077
:1018D0000040C0F17F6000F1E040C00F0ED0301C2E
:1018E00018BF0120384320F00040C0F17F6000F1B4
:1018F000E040C00F04BF0120FEF7D3FC204629467C
:10190000BDE8F08110B591EA030F48BF83F00043B2
:1019100000F1B284841A71EB030C05D2121943EB67
:101920000C03001B61EB0C01DFF824E14FEA1154BA
:10193000A4EB135C1EEA430F18BF9EEA445F73D00A
:1019400023EA0E03DCF1200E21EA045143F4801354
:1019500032D322FA0CFE10EB0E0023FA0CFE41EB00
:101960000E01CCF1200E03FA0EFE10EB0E0051F129
:101970000001B1F5801FCCF1200E32D201EB0451F1
:1019800012FA0EF2BDE8104058BF7047401C38BF35
:101990005FEA420218BF7047002814BF20F0010020
:1019A00041F100014FEA410313F5001F38BF7047B2
:1019B000A1F1C04100F02ABB012A43EB0302ACF1C4
:1019C000200CDCF11F0E32BF4FF0000E23FA0CF397
:1019D00010EB030041EB0451B4EB115FD0D0A1EB4D
:1019E000045101F5801149085FEA300001EB045110
:1019F0000ED350F1000038BF12FA0EFE08D1BDE838
:101A00001040C9E7401C38BF5FEA4202CAD1C3E7B1
:101A1000BDE810404FEA410313F5001F38BF70477F
:101A2000A1F1C04100F0F2BA9EEA445F08D011EA89
:101A30005E0FBDE8104004BF01F000410020704778
:101A4000BDE8104070B500F093FA00BF64FBBE3EE5
:101A50000000E0FF491058BFC1F140415B1058BF82
:101A6000C3F140438B42EFF3008070472DE9C04142
:101A700030B4DFF8A0C23CEA111418BF3CEA1314DA
:101A800000F0EC8081EA03051CEA111444EAD574E5
:101A900018BF1CEA131500F0C780A4EB05044FF033
:101AA000004545EAC12145EAC32341EA505143EAD2
:101AB000525304F17F74994204F500344FEAC02078
:101AC0004FEAC22208BF904200F09C804FEA1365A3
:101AD0000FF24016765D4FEA134506FB05F7C7F196
:101AE000807706FB07F74FEAD737A7FB03687642F4
:101AF000C8F58038A7FB06CE38BFA8F1010807FB60
:101B000008E64FF0000EA6FB028CE6FB03CEDCF1EC
:101B1000000CCEF1004E38BFAEF1010EA6FB0C5802
:101B20004FF000074FF00005E6FB0E87A1FB08C64B
:101B3000A0FB07CE16EB0E0645F10005E1FB07659D
:101B400015F1E04E7EBFA4F580345FEA46066D4194
:101B500016F1800745F100054FEA17274FEA0666A0
:101B600047EA0567A6F1DE46B6F1805F4FEA152524
:101B70001FD9384624F0010C05EBC471BCF1FE6F8F
:101B800001EB0C1102D8F0BCBDE8008124425CBF1F
:101B900001F5801E9EEAC47F02D4F0BCBDE800813E
:101BA000244238D4F0BCA1F1C041BDE8004100F0AE
:101BB0002DBA4FEAD22242EA43524FEAD323A7FB7F
:101BC00002864FEAD02040EA415007FB03661EEA36
:101BD0000E0F4FEAD12105FB026658BFA6EB005657
:101BE000B6EB00564FEA520E4EEAC37E18EB0E0ECD
:101BF00056EB530EBDD518EB02085E417F1C55F124
:101C00000005B6E74FF480154FF000074FF00006CF
:101C10004FF00008ADE7F0BC4FF0000001F1C0410B
:101C200001F00041BDE8008111EA0C1F0CEA131518
:101C300000D00CE013EA0C1F00F025804FF00000EC
:101C4000F0BC81EA030101F00041BDE80081F0BC75
:101C5000BDE8004181EA030100F0D8B9F0BCBDE85D
:101C6000004170B500F084F9097EFC3E00F007B831
:101C700081EA03014FF0000001F00041704781EA62
:101C8000030100F0C3B9F0BCBDE800414FF0000013
:101C900021497047FFFDFBF9F7F5F4F2F0EEEDEBAB
:101CA000E9E8E6E4E3E1E0DEDDDBDAD8D7D5D4D35A
:101CB000D1D0CFCDCCCBCAC8C7C6C5C4C2C1C0BFA6
:101CC000BEBDBCBBBAB9B8B7B6B5B4B3B2B1B0AFAC
:101CD000AEADACABAAA9A8A8A7A6A5A4A3A3A2A190
:101CE000A09F9F9E9D9C9C9B9A999998979796954B
:101CF00095949393929191908F8F8E8E8D8C8C8BE7
:101D00008B8A89898888878786858584848383826E
:101D1000828181800000FF070000F87F4FEA1153A5
:101D2000A3F58063D3F11E03A8BFD3F1200C08DB19
:101D30004FF0004242EAC12252EA505232FA03F016
:101D4000704709420BD4102BC4BF0020704703F525
:101D5000787CBCF1FF3F05D04FF0FF3070474FF06B
:101D60000000704770B500F003F900BF499224806D
:101D700000207047F0E710F0004248BF4042B0FA40
:101D800080F310FA03F10AD0C3F11D0303F5806359
:101D90004FEA415002EB035202EBD12170474FF062
:101DA0000000704751EA030C17D41CF5801F58BF80
:101DB000BCF5801F00F10680994218BF704708BF2C
:101DC0009042704707D711F5801F58BF13F5801F49
:101DD00019D499427047894270471CF5801F08D575
:101DE000BCF5801FF7D58B4218BF704708BF8242F1
:101DF00070474FF4001C1CEB410F38BF1CEB430F26
:101E000001D28B42704770B500F0B2F892244900BD
:101E10004FF000514FF08053FFF71CBEDFF848C170
:101E200070B51CEA111E1EBF1CEA13159EEA0C0FAA
:101E300095EA0C0F00F06F8081EA030423EA4C134B
:101E40004EEAD47E21EA4C1141F4801143F4801310
:101E5000AE44A1FB024CA0FB0365AEF17F7E3619B8
:101E600055EB0C05A1FB034C4CF10003A0FB021C3D
:101E700016EB0C06654153F10003094218BF46F00A
:101E8000010613F4007F0BD14FEA03314FEA05300E
:101E9000340341EA155140EA16506FF003020AE09C
:101EA0004FEAC3214FEAC520F40241EA555140EA06
:101EB00056506FF0020202EB2E4201EB025585EA0A
:101EC000CE710AD05FEA440C18BF24F0004450F1F0
:101ED000000041F1000120EAD47040F2FE7C62452E
:101EE00000D270BDA84214BF4FF080444FF0404470
:101EF000002E08BF0024BEF1806FA8BFA1F1C04131
:101F0000BDE8704080F282804FF0000001F1C041D6
:101F100001F0004170479EEA0C0F0CEA131518BF40
:101F200095EA0C0F06D04FF0000081EA030E0EF088
:101F3000004170BD00F01CF88900013E00F007B8B8
:101F400000F009B84FEA430C5FEA5C5C08D081EA14
:101F5000030100F05BB84FEA410C5FEA5C5CF6D12C
:101F60004FF00000014970470000FF070000F87FB4
:101F70000EF1020E2EF0030E5EF8046B364205D40D
:101F8000012A43EB030515F5001F12D8012841EB88
:101F9000010C1CF5001F0CD80ED14FEAD17C15F5B1
:101FA000001F0CEB4C0C0CF1020C08BF4CEBD37C6B
:101FB00004E04FF0080C01E04FEAD37C0CEB4C0539
:101FC00026FA05F606F00706B6F1040C06D20EEB6B
:101FD000860CBDE870404CF0010C6047DFE80CF067
:101FE000090B02024FF000414FF00000A1F5002163
:101FF00070BD19461046012851EB010418BFD4F5F5
:10200000001484BF002001F0004170BD0808A0F555
:1020100000114FEA3101704753EA010C17D41CF547
:10202000801F58BFBCF5801F00F106808B4218BF8F
:10203000704708BF8242704707D713F5801F58BF0B
:1020400011F5801F19D48B4270479B4270471CF5D5
:10205000801F08D5BCF5801FF7D5994218BF70477F
:1020600008BF904270474FF4001C1CEB430F38BF71
:102070001CEB410F01D2994270470FB40CBC03BC5A
:10208000FFF7C1BE91EA030F10B581F000413FF5A3
:1020900041AC83F0004300F0EFB800002DE9F041BF
:1020A00001F5801CBCF5001FC0F2C3804FEA115C33
:1020B00021EA0C510CF1FD0C41F480115FEA5C0C3B
:1020C0000CF5C07C01D3400049413DA4890241EA9E
:1020D000905187028E0E0A0CA45D04FB04F602FBED
:1020E00006F6C6F14046A4FB0662F60D46EA422615
:1020F00006FB06F4A4FB01235242C3F1404338BF60
:102100005B1EA6FB02420024E6FB0324D20B42EA3C
:102110004446A6FB0623A1FB02E2A3FB07E4A418A6
:102120004FF0000252F10002E3FB01426442C2F1AF
:10213000404E38BFAEF1010EA6FB04234FF0000263
:10214000E6FB0E32A2FB03464FF00004B61954F131
:102150000004E2FB0264A1FB06E6A4FB07E816EB21
:1021600008064FF0000858F10008E4FB01687642C9
:10217000C8F1405838BFA8F10108A2FB06E4A3FB50
:1021800008E52D194FF0000454F10004E2FB085457
:10219000A1FB05E6A7FB04E818EB06084FF00006D4
:1021A00056F10006E1FB048618F1200556F1000601
:1021B000A809A8F11B08B10908F03F08B8F10A0FF7
:1021C00040EA86601CD901EB0C51BDE8F08100BFEC
:1021D000FCF5EEE8E2DDD8D3CFCBC7C3C0BDB9B6BE
:1021E000B4B1AEACA9A7A5A3A19F9D9B9A989695C3
:1021F0009392908F8D8C8B8988878685848382814A
:10220000A0FB006800FB01F208EB4208B8EB87284E
:1022100007D5341858EB0104D5D5401C51F1000105
:10222000D1E7341A78EB0104CDD4401E71F10001DE
:10223000C9E75FEA4C0C5FEA9C5C0DD105D34FF017
:10224000000001F00041BDE8F081BDE8F04170B54B
:10225000FFF78EFE6DDBFFBEBDE8F0414FF00000E2
:10226000004970470000F87F10B591EA030F48BF9E
:1022700083F000433FF54EAB841A71EB030C07D299
:1022800012198CF0004C43EB0C03001B61EB0C01AA
:10229000DFF8A4E14FEA1154A4EB135C1EEA430FEC
:1022A00018BF9EEA445F00F0B08023EA6E035242FA
:1022B00021EA0451C3EB6E0338BF5B1EDCF1200E34
:1022C00025D322FA0CFE10EB0E0043FA0CFE41EB74
:1022D0000E01CCF1200E03FA0EFE10EB0E0051F1B0
:1022E0000001CCF1200E29D412FA0EF201EB0451B8
:1022F000BDE8104058BF7047401C1CBFB2F1004FF2
:10230000704700280CBF491C20F00100704712EBF9
:10231000020E43EB030218BF4FF0010E4EEA4202D9
:10232000ACF1200CDCF11E0E54D943FA0CFE10EB7C
:102330000E0051F1FF31CCF11E0ED5D50EF1010E7C
:1023400012FA0EFE404141EB010101EB445C5FEAF1
:102350005C5C10D910EBDE7001EB045138BFBEF1AC
:10236000004FBDE8104018BF704700280CBF491C43
:1023700020F00100704730D24FEAD42C11F5001143
:1023800024F400641BD0B1FA81F20B3AA41AA41E03
:10239000D2F12003914030FA03F31943904001EB4E
:1023A000CC71002C01EB0451BDE81040A8BF704770
:1023B00001F1C0414FF0000001F000417047B0FA58
:1023C00080F310FA03F100D110BDE41A173C480560
:1023D000C90AE4E701EB045110BD491001EB0451B7
:1023E000BDE810404FEA300002E04FF000017047B6
:1023F0004A0008BF0042F8D0B2F5001F28BF70475E
:1024000001F000414FF0000070479EEA445F07D0A2
:1024100011EA5E0FBDE8104004BF002100207047A4
:10242000BDE8104070B5FFF7A3FD00BF40DFF63EEA
:1024300083F00041104670470000E0FF0CF00F03EE
:10244000092B08BF082000F059800A2B0BD0082B5D
:1024500018BF704708BF1CF0400F0AD04FF00000B3
:102460004FF0000170471CF0400F18BF4FF00040C4
:1024700070471CF0100F08D020F0704300F07F422E
:1024800042EAD3014FEA4370704700F0604021F008
:102490007F4242EA000201F07F4040EA72707047DA
:1024A0004FF0FF0C4CF4E06C1CEA11531CBF9CEA8B
:1024B000030C9445C2BFDA4201EB02517047002B76
:1024C0000DD0BCF1000F0FD0002A01F00041A4BFD5
:1024D00041F0E04141F07F614FF00000704701F0B2
:1024E00000414FF00000704750EA01334FF09B0C61
:1024F00018BF4CF0806C7DF4F9AE70471CF4801F5F
:1025000011D01CF4E02F03D06FEACC3149007047A2
:102510004FF04050EFF3008222F0704242EA000296
:1025200082F3008870474FF0000070470000000001
:10253000000000000000F03F000000000000F83F35
:1025400000000000000000000000004003B8E23F6F
:10255000000000000000000006D0CF43EBFD4C3E21
:10256000033333333333E33FFFAB6FDBB66DDB3F16
:102570004D268F515555D53F01411DA96074D13F5E
:1025800065DBC9934A86CD3FEF4E454A287ECA3F58
:102590003E5555555555C53F93BDBE166CC166BFDA
:1025A0002CDE25AF6A56113FF16BD2C541BDBBBED3
:1025B000D0A4BE726937663E000000000000000033
:1025C000E025000000000010840000000801000069
:1025D0006426000084000010640200002401000052
:1025E00000E1F5050000000000000000020000000E
:1025F00000000000000000000000000000000000DB
:1026000000000000000000000000000000000000CA
:1026100000000000000000000000000000000000BA
:1026200000000000000000000000000000000000AA
:10263000000000000000000000000000000000009A
:10264000000000000000000000000000000000008A
:10265000000000000000000000000000000000007A
:042660000000000076
:04000005000000CD2A
:00000001FF
